{
  "contractName": "FirstContract",
  "abi": [
    {
      "inputs": [],
      "name": "hey",
      "outputs": [
        {
          "internalType": "string",
          "name": "",
          "type": "string"
        }
      ],
      "stateMutability": "view",
      "type": "function"
    },
    {
      "inputs": [],
      "name": "owner",
      "outputs": [
        {
          "internalType": "address",
          "name": "",
          "type": "address"
        }
      ],
      "stateMutability": "view",
      "type": "function"
    },
    {
      "inputs": [],
      "name": "setOwner",
      "outputs": [
        {
          "internalType": "address",
          "name": "",
          "type": "address"
        }
      ],
      "stateMutability": "nonpayable",
      "type": "function"
    }
  ],
  "bytecode": "0x608060405234801561000f575f80fd5b5061034f8061001d5f395ff3fe608060405234801561000f575f80fd5b506004361061003f575f3560e01c806340caae06146100435780638da5cb5b14610061578063bde2b5731461007f575b5f80fd5b61004b61009d565b60405161005891906101f9565b60405180910390f35b61006961010a565b60405161007691906101f9565b60405180910390f35b61008761012f565b604051610094919061029c565b60405180910390f35b5f803390508060015f6101000a81548173ffffffffffffffffffffffffffffffffffffffff021916908373ffffffffffffffffffffffffffffffffffffffff16021790555060015f9054906101000a900473ffffffffffffffffffffffffffffffffffffffff1691505090565b60015f9054906101000a900473ffffffffffffffffffffffffffffffffffffffff1681565b5f805461013b906102e9565b80601f0160208091040260200160405190810160405280929190818152602001828054610167906102e9565b80156101b25780601f10610189576101008083540402835291602001916101b2565b820191905f5260205f20905b81548152906001019060200180831161019557829003601f168201915b505050505081565b5f73ffffffffffffffffffffffffffffffffffffffff82169050919050565b5f6101e3826101ba565b9050919050565b6101f3816101d9565b82525050565b5f60208201905061020c5f8301846101ea565b92915050565b5f81519050919050565b5f82825260208201905092915050565b5f5b8381101561024957808201518184015260208101905061022e565b5f8484015250505050565b5f601f19601f8301169050919050565b5f61026e82610212565b610278818561021c565b935061028881856020860161022c565b61029181610254565b840191505092915050565b5f6020820190508181035f8301526102b48184610264565b905092915050565b7f4e487b71000000000000000000000000000000000000000000000000000000005f52602260045260245ffd5b5f600282049050600182168061030057607f821691505b602082108103610313576103126102bc565b5b5091905056fea26469706673582212207bc7ae83e4b5a2906af92632323115e6db2ea95d201e3a532ec5d8e13b1647cb64736f6c63430008150033",
  "immutableReferences": {},
  "source": "// SPDX-License-Identifier: MIT\npragma solidity >=0.4.22 <0.9.0;\n\ncontract FirstContract {\n    string public hey;\n    address public owner;\n\n    function setOwner() public returns(address) {\n        address contractAddress = msg.sender;\n        owner = contractAddress;\n\n        return owner;\n    }\n}\n",
  "sourcePath": "/home/danny/Documents/solidity/first-project/contracts/FirstContract.sol",
  "compiler": {
    "name": "solc",
    "version": "0.8.21+commit.d9974bed.Emscripten.clang"
  },
  "schemaVersion": "3.4.16",
  "updatedAt": "2023-09-24T10:34:56.110Z",
  "devdoc": {
    "kind": "dev",
    "methods": {},
    "version": 1
  },
  "userdoc": {
    "kind": "user",
    "methods": {},
    "version": 1
  }
}